{
  "_format": "hh-sol-artifact-1",
  "contractName": "SAMPL",
  "sourceName": "contracts/sampl.sol",
  "abi": [
    {
      "inputs": [],
      "stateMutability": "nonpayable",
      "type": "constructor"
    },
    {
      "anonymous": false,
      "inputs": [
        {
          "indexed": true,
          "internalType": "address",
          "name": "owner",
          "type": "address"
        },
        {
          "indexed": true,
          "internalType": "address",
          "name": "spender",
          "type": "address"
        },
        {
          "indexed": false,
          "internalType": "uint256",
          "name": "value",
          "type": "uint256"
        }
      ],
      "name": "Approval",
      "type": "event"
    },
    {
      "anonymous": false,
      "inputs": [
        {
          "indexed": true,
          "internalType": "address",
          "name": "from",
          "type": "address"
        },
        {
          "indexed": true,
          "internalType": "address",
          "name": "to",
          "type": "address"
        },
        {
          "indexed": false,
          "internalType": "uint256",
          "name": "value",
          "type": "uint256"
        }
      ],
      "name": "Transfer",
      "type": "event"
    },
    {
      "inputs": [
        {
          "internalType": "address",
          "name": "owner",
          "type": "address"
        },
        {
          "internalType": "address",
          "name": "spender",
          "type": "address"
        }
      ],
      "name": "allowance",
      "outputs": [
        {
          "internalType": "uint256",
          "name": "",
          "type": "uint256"
        }
      ],
      "stateMutability": "view",
      "type": "function"
    },
    {
      "inputs": [
        {
          "internalType": "address",
          "name": "spender",
          "type": "address"
        },
        {
          "internalType": "uint256",
          "name": "amount",
          "type": "uint256"
        }
      ],
      "name": "approve",
      "outputs": [
        {
          "internalType": "bool",
          "name": "",
          "type": "bool"
        }
      ],
      "stateMutability": "nonpayable",
      "type": "function"
    },
    {
      "inputs": [
        {
          "internalType": "address",
          "name": "account",
          "type": "address"
        }
      ],
      "name": "balanceOf",
      "outputs": [
        {
          "internalType": "uint256",
          "name": "",
          "type": "uint256"
        }
      ],
      "stateMutability": "view",
      "type": "function"
    },
    {
      "inputs": [],
      "name": "decimals",
      "outputs": [
        {
          "internalType": "uint8",
          "name": "",
          "type": "uint8"
        }
      ],
      "stateMutability": "view",
      "type": "function"
    },
    {
      "inputs": [
        {
          "internalType": "address",
          "name": "spender",
          "type": "address"
        },
        {
          "internalType": "uint256",
          "name": "subtractedValue",
          "type": "uint256"
        }
      ],
      "name": "decreaseAllowance",
      "outputs": [
        {
          "internalType": "bool",
          "name": "",
          "type": "bool"
        }
      ],
      "stateMutability": "nonpayable",
      "type": "function"
    },
    {
      "inputs": [
        {
          "internalType": "uint256",
          "name": "amount",
          "type": "uint256"
        }
      ],
      "name": "deposit",
      "outputs": [],
      "stateMutability": "nonpayable",
      "type": "function"
    },
    {
      "inputs": [
        {
          "internalType": "address",
          "name": "spender",
          "type": "address"
        },
        {
          "internalType": "uint256",
          "name": "addedValue",
          "type": "uint256"
        }
      ],
      "name": "increaseAllowance",
      "outputs": [
        {
          "internalType": "bool",
          "name": "",
          "type": "bool"
        }
      ],
      "stateMutability": "nonpayable",
      "type": "function"
    },
    {
      "inputs": [],
      "name": "isPoolEmpty",
      "outputs": [
        {
          "internalType": "bool",
          "name": "isEmpty",
          "type": "bool"
        }
      ],
      "stateMutability": "view",
      "type": "function"
    },
    {
      "inputs": [],
      "name": "name",
      "outputs": [
        {
          "internalType": "string",
          "name": "",
          "type": "string"
        }
      ],
      "stateMutability": "view",
      "type": "function"
    },
    {
      "inputs": [],
      "name": "pool_balance",
      "outputs": [
        {
          "internalType": "uint256",
          "name": "",
          "type": "uint256"
        }
      ],
      "stateMutability": "view",
      "type": "function"
    },
    {
      "inputs": [],
      "name": "symbol",
      "outputs": [
        {
          "internalType": "string",
          "name": "",
          "type": "string"
        }
      ],
      "stateMutability": "view",
      "type": "function"
    },
    {
      "inputs": [],
      "name": "totalSupply",
      "outputs": [
        {
          "internalType": "uint256",
          "name": "",
          "type": "uint256"
        }
      ],
      "stateMutability": "view",
      "type": "function"
    },
    {
      "inputs": [
        {
          "internalType": "address",
          "name": "recipient",
          "type": "address"
        },
        {
          "internalType": "uint256",
          "name": "amount",
          "type": "uint256"
        }
      ],
      "name": "transfer",
      "outputs": [
        {
          "internalType": "bool",
          "name": "",
          "type": "bool"
        }
      ],
      "stateMutability": "nonpayable",
      "type": "function"
    },
    {
      "inputs": [
        {
          "internalType": "address",
          "name": "sender",
          "type": "address"
        },
        {
          "internalType": "address",
          "name": "recipient",
          "type": "address"
        },
        {
          "internalType": "uint256",
          "name": "amount",
          "type": "uint256"
        }
      ],
      "name": "transferFrom",
      "outputs": [
        {
          "internalType": "bool",
          "name": "",
          "type": "bool"
        }
      ],
      "stateMutability": "nonpayable",
      "type": "function"
    },
    {
      "inputs": [
        {
          "internalType": "uint256",
          "name": "amount_sampl",
          "type": "uint256"
        }
      ],
      "name": "unwrap",
      "outputs": [],
      "stateMutability": "nonpayable",
      "type": "function"
    }
  ],
  "bytecode": "0x60806040523480156200001157600080fd5b50604080518082018252600c81526b15dc985c1c1959081053541360a21b60208083019182528351808501909452600584526414d053541360da1b908401528151919291620000639160039162000082565b5080516200007990600490602084019062000082565b50505062000165565b828054620000909062000128565b90600052602060002090601f016020900481019282620000b45760008555620000ff565b82601f10620000cf57805160ff1916838001178555620000ff565b82800160010185558215620000ff579182015b82811115620000ff578251825591602001919060010190620000e2565b506200010d92915062000111565b5090565b5b808211156200010d576000815560010162000112565b6002810460018216806200013d57607f821691505b602082108114156200015f57634e487b7160e01b600052602260045260246000fd5b50919050565b61127980620001756000396000f3fe608060405234801561001057600080fd5b50600436106100f55760003560e01c806370a0823111610097578063b6b55f2511610066578063b6b55f25146101d1578063bddea952146101e6578063dd62ed3e146101ee578063de0e9a3e14610201576100f5565b806370a082311461019057806395d89b41146101a3578063a457c2d7146101ab578063a9059cbb146101be576100f5565b8063192ef492116100d3578063192ef4921461014d57806323b872dd14610155578063313ce56714610168578063395093511461017d576100f5565b806306fdde03146100fa578063095ea7b31461011857806318160ddd14610138575b600080fd5b610102610214565b60405161010f9190610db7565b60405180910390f35b61012b610126366004610ce2565b6102a6565b60405161010f9190610dac565b6101406102c3565b60405161010f919061116d565b6101406102c9565b61012b610163366004610ca7565b610358565b6101706103f8565b60405161010f9190611176565b61012b61018b366004610ce2565b6103fd565b61014061019e366004610c5b565b61044c565b61010261046b565b61012b6101b9366004610ce2565b61047a565b61012b6101cc366004610ce2565b6104f5565b6101e46101df366004610d2b565b610509565b005b61012b6106a3565b6101406101fc366004610c75565b610741565b6101e461020f366004610d2b565b61076c565b606060038054610223906111f2565b80601f016020809104026020016040519081016040528092919081815260200182805461024f906111f2565b801561029c5780601f106102715761010080835404028352916020019161029c565b820191906000526020600020905b81548152906001019060200180831161027f57829003601f168201915b5050505050905090565b60006102ba6102b361089a565b848461089e565b50600192915050565b60025490565b6040516370a0823160e01b815260009073027dbca046ca156de9622cd1e2d907d375e53aa7906370a0823190610303903090600401610d5b565b60206040518083038186803b15801561031b57600080fd5b505afa15801561032f573d6000803e3d6000fd5b505050506040513d601f19601f820116820180604052508101906103539190610d43565b905090565b6000610365848484610952565b6001600160a01b03841660009081526001602052604081208161038661089a565b6001600160a01b03166001600160a01b03168152602001908152602001600020549050828110156103d25760405162461bcd60e51b81526004016103c990610f85565b60405180910390fd5b6103ed856103de61089a565b6103e886856111db565b61089e565b506001949350505050565b600990565b60006102ba61040a61089a565b84846001600061041861089a565b6001600160a01b03908116825260208083019390935260409182016000908120918b16815292529020546103e89190611184565b6001600160a01b0381166000908152602081905260409020545b919050565b606060048054610223906111f2565b6000806001600061048961089a565b6001600160a01b03908116825260208083019390935260409182016000908120918816815292529020549050828110156104d55760405162461bcd60e51b81526004016103c9906110f1565b6104eb6104e061089a565b856103e886856111db565b5060019392505050565b60006102ba61050261089a565b8484610952565b600081116105295760405162461bcd60e51b81526004016103c990610f4e565b6105316106a3565b156105d3576040516323b872dd60e01b815273027dbca046ca156de9622cd1e2d907d375e53aa7906323b872dd9061057190339030908690600401610d6f565b602060405180830381600087803b15801561058b57600080fd5b505af115801561059f573d6000803e3d6000fd5b505050506040513d601f19601f820116820180604052508101906105c39190610d0b565b506105ce3382610a7a565b6106a0565b60006105dd6102c3565b905060006105e96102c9565b90506000610601826105fb8686610b3a565b90610b4d565b6040516323b872dd60e01b815290915073027dbca046ca156de9622cd1e2d907d375e53aa7906323b872dd9061063f90339030908990600401610d6f565b602060405180830381600087803b15801561065957600080fd5b505af115801561066d573d6000803e3d6000fd5b505050506040513d601f19601f820116820180604052508101906106919190610d0b565b5061069c3382610a7a565b5050505b50565b6040516370a0823160e01b8152600090819073027dbca046ca156de9622cd1e2d907d375e53aa7906370a08231906106df903090600401610d5b565b60206040518083038186803b1580156106f757600080fd5b505afa15801561070b573d6000803e3d6000fd5b505050506040513d601f19601f8201168201806040525081019061072f9190610d43565b1461073b576000610353565b50600190565b6001600160a01b03918216600090815260016020908152604080832093909416825291909152205490565b60006107766102c9565b905060006107826102c3565b9050600081116107a45760405162461bcd60e51b81526004016103c9906110c2565b600082116107c45760405162461bcd60e51b81526004016103c990610f17565b60006107d4826105fb8686610b3a565b9050836107e03361044c565b10156107fe5760405162461bcd60e51b81526004016103c990610fcd565b6108083385610b59565b60405163a9059cbb60e01b815273027dbca046ca156de9622cd1e2d907d375e53aa79063a9059cbb906108419033908590600401610d93565b602060405180830381600087803b15801561085b57600080fd5b505af115801561086f573d6000803e3d6000fd5b505050506040513d601f19601f820116820180604052508101906108939190610d0b565b5050505050565b3390565b6001600160a01b0383166108c45760405162461bcd60e51b81526004016103c99061107e565b6001600160a01b0382166108ea5760405162461bcd60e51b81526004016103c990610e8f565b6001600160a01b0380841660008181526001602090815260408083209487168084529490915290819020849055517f8c5be1e5ebec7d5bd14f71427d1e84f3dd0314c0f7b2291e5b200ac8c7c3b9259061094590859061116d565b60405180910390a3505050565b6001600160a01b0383166109785760405162461bcd60e51b81526004016103c990611039565b6001600160a01b03821661099e5760405162461bcd60e51b81526004016103c990610e0a565b6109a9838383610c3f565b6001600160a01b038316600090815260208190526040902054818110156109e25760405162461bcd60e51b81526004016103c990610ed1565b6109ec82826111db565b6001600160a01b038086166000908152602081905260408082209390935590851681529081208054849290610a22908490611184565b92505081905550826001600160a01b0316846001600160a01b03167fddf252ad1be2c89b69c2b068fc378daa952ba7f163c4a11628f55a4df523b3ef84604051610a6c919061116d565b60405180910390a350505050565b6001600160a01b038216610aa05760405162461bcd60e51b81526004016103c990611136565b610aac60008383610c3f565b8060026000828254610abe9190611184565b90915550506001600160a01b03821660009081526020819052604081208054839290610aeb908490611184565b90915550506040516001600160a01b038316906000907fddf252ad1be2c89b69c2b068fc378daa952ba7f163c4a11628f55a4df523b3ef90610b2e90859061116d565b60405180910390a35050565b6000610b4682846111bc565b9392505050565b6000610b46828461119c565b6001600160a01b038216610b7f5760405162461bcd60e51b81526004016103c990610ff8565b610b8b82600083610c3f565b6001600160a01b03821660009081526020819052604090205481811015610bc45760405162461bcd60e51b81526004016103c990610e4d565b610bce82826111db565b6001600160a01b03841660009081526020819052604081209190915560028054849290610bfc9084906111db565b90915550506040516000906001600160a01b038516907fddf252ad1be2c89b69c2b068fc378daa952ba7f163c4a11628f55a4df523b3ef9061094590869061116d565b505050565b80356001600160a01b038116811461046657600080fd5b600060208284031215610c6c578081fd5b610b4682610c44565b60008060408385031215610c87578081fd5b610c9083610c44565b9150610c9e60208401610c44565b90509250929050565b600080600060608486031215610cbb578081fd5b610cc484610c44565b9250610cd260208501610c44565b9150604084013590509250925092565b60008060408385031215610cf4578182fd5b610cfd83610c44565b946020939093013593505050565b600060208284031215610d1c578081fd5b81518015158114610b46578182fd5b600060208284031215610d3c578081fd5b5035919050565b600060208284031215610d54578081fd5b5051919050565b6001600160a01b0391909116815260200190565b6001600160a01b039384168152919092166020820152604081019190915260600190565b6001600160a01b03929092168252602082015260400190565b901515815260200190565b6000602080835283518082850152825b81811015610de357858101830151858201604001528201610dc7565b81811115610df45783604083870101525b50601f01601f1916929092016040019392505050565b60208082526023908201527f45524332303a207472616e7366657220746f20746865207a65726f206164647260408201526265737360e81b606082015260800190565b60208082526022908201527f45524332303a206275726e20616d6f756e7420657863656564732062616c616e604082015261636560f01b606082015260800190565b60208082526022908201527f45524332303a20617070726f766520746f20746865207a65726f206164647265604082015261737360f01b606082015260800190565b60208082526026908201527f45524332303a207472616e7366657220616d6f756e7420657863656564732062604082015265616c616e636560d01b606082015260800190565b6020808252601a908201527f24414d504c20706f6f6c2062616c616e6365206973207a65726f000000000000604082015260600190565b6020808252601f908201527f416d6f756e742073686f756c642062652067726561746572207468616e203000604082015260600190565b60208082526028908201527f45524332303a207472616e7366657220616d6f756e74206578636565647320616040820152676c6c6f77616e636560c01b606082015260800190565b602080825260119082015270139bdd08195b9bdd59da080914d0535413607a1b604082015260600190565b60208082526021908201527f45524332303a206275726e2066726f6d20746865207a65726f206164647265736040820152607360f81b606082015260800190565b60208082526025908201527f45524332303a207472616e736665722066726f6d20746865207a65726f206164604082015264647265737360d81b606082015260800190565b60208082526024908201527f45524332303a20617070726f76652066726f6d20746865207a65726f206164646040820152637265737360e01b606082015260800190565b6020808252601590820152742453414d504c20737570706c79206973207a65726f60581b604082015260600190565b60208082526025908201527f45524332303a2064656372656173656420616c6c6f77616e63652062656c6f77604082015264207a65726f60d81b606082015260800190565b6020808252601f908201527f45524332303a206d696e7420746f20746865207a65726f206164647265737300604082015260600190565b90815260200190565b60ff91909116815260200190565b600082198211156111975761119761122d565b500190565b6000826111b757634e487b7160e01b81526012600452602481fd5b500490565b60008160001904831182151516156111d6576111d661122d565b500290565b6000828210156111ed576111ed61122d565b500390565b60028104600182168061120657607f821691505b6020821081141561122757634e487b7160e01b600052602260045260246000fd5b50919050565b634e487b7160e01b600052601160045260246000fdfea26469706673582212200eb57cbd5553468fa9ded0058466da85fcfcbc4f919886be47f9c09bd9fd2e1664736f6c63430008000033",
  "linkReferences": {},
  "deployedLinkReferences": {}
}